{
  "address": "0x3495fa1C4C2Ae290CF20ED1745395663b6189911",
  "abi": [
    {
      "inputs": [
        {
          "internalType": "uint256",
          "name": "_durationBetweenPayments",
          "type": "uint256"
        },
        {
          "internalType": "uint256",
          "name": "_insuranceDuration",
          "type": "uint256"
        },
        {
          "internalType": "address",
          "name": "_verifierAddress",
          "type": "address"
        }
      ],
      "stateMutability": "nonpayable",
      "type": "constructor"
    },
    {
      "anonymous": false,
      "inputs": [
        {
          "indexed": true,
          "internalType": "uint256",
          "name": "claimAmount",
          "type": "uint256"
        },
        {
          "indexed": true,
          "internalType": "address",
          "name": "payeeAddress",
          "type": "address"
        },
        {
          "indexed": true,
          "internalType": "uint256",
          "name": "timeOfClaim",
          "type": "uint256"
        }
      ],
      "name": "ClaimPaid",
      "type": "event"
    },
    {
      "anonymous": false,
      "inputs": [
        {
          "indexed": true,
          "internalType": "uint256",
          "name": "claimAmount",
          "type": "uint256"
        },
        {
          "indexed": true,
          "internalType": "address",
          "name": "payeeAddress",
          "type": "address"
        }
      ],
      "name": "ClaimRejected",
      "type": "event"
    },
    {
      "anonymous": false,
      "inputs": [
        {
          "indexed": true,
          "internalType": "uint256",
          "name": "coverageAmount",
          "type": "uint256"
        },
        {
          "indexed": true,
          "internalType": "uint256",
          "name": "periodicPremium",
          "type": "uint256"
        },
        {
          "indexed": true,
          "internalType": "uint256",
          "name": "insuranceDuration",
          "type": "uint256"
        },
        {
          "indexed": false,
          "internalType": "uint256",
          "name": "minDurationBetweenPayments",
          "type": "uint256"
        },
        {
          "indexed": false,
          "internalType": "uint256",
          "name": "maxDurationBetweenPayments",
          "type": "uint256"
        }
      ],
      "name": "InsuranceVariablesAdjusted",
      "type": "event"
    },
    {
      "anonymous": false,
      "inputs": [
        {
          "indexed": true,
          "internalType": "address",
          "name": "previousOwner",
          "type": "address"
        },
        {
          "indexed": true,
          "internalType": "address",
          "name": "newOwner",
          "type": "address"
        }
      ],
      "name": "OwnershipTransferred",
      "type": "event"
    },
    {
      "anonymous": false,
      "inputs": [
        {
          "indexed": true,
          "internalType": "uint256",
          "name": "paidAmount",
          "type": "uint256"
        },
        {
          "indexed": true,
          "internalType": "address",
          "name": "payeeAddress",
          "type": "address"
        },
        {
          "indexed": true,
          "internalType": "uint256",
          "name": "timeOfPayment",
          "type": "uint256"
        }
      ],
      "name": "PremiumPaid",
      "type": "event"
    },
    {
      "anonymous": false,
      "inputs": [
        {
          "indexed": true,
          "internalType": "address",
          "name": "storageProvider",
          "type": "address"
        },
        {
          "indexed": true,
          "internalType": "uint256",
          "name": "periodicPremium",
          "type": "uint256"
        },
        {
          "indexed": true,
          "internalType": "uint256",
          "name": "claimAmount",
          "type": "uint256"
        }
      ],
      "name": "StorageProviderReistered",
      "type": "event"
    },
    {
      "inputs": [
        {
          "internalType": "uint256",
          "name": "FILPrice",
          "type": "uint256"
        },
        {
          "internalType": "uint256",
          "name": "_reputationScore",
          "type": "uint256"
        },
        {
          "internalType": "address",
          "name": "_SP",
          "type": "address"
        }
      ],
      "name": "calculatePayablePremium",
      "outputs": [
        {
          "internalType": "uint256",
          "name": "",
          "type": "uint256"
        }
      ],
      "stateMutability": "view",
      "type": "function"
    },
    {
      "inputs": [
        {
          "internalType": "address",
          "name": "_storageProvider",
          "type": "address"
        }
      ],
      "name": "getClaimAmount",
      "outputs": [
        {
          "internalType": "uint256",
          "name": "",
          "type": "uint256"
        }
      ],
      "stateMutability": "view",
      "type": "function"
    },
    {
      "inputs": [],
      "name": "getDurationBetweenPayments",
      "outputs": [
        {
          "internalType": "uint256",
          "name": "",
          "type": "uint256"
        }
      ],
      "stateMutability": "view",
      "type": "function"
    },
    {
      "inputs": [],
      "name": "getInsuranceDuration",
      "outputs": [
        {
          "internalType": "uint256",
          "name": "",
          "type": "uint256"
        }
      ],
      "stateMutability": "view",
      "type": "function"
    },
    {
      "inputs": [
        {
          "internalType": "uint256",
          "name": "FILPrice",
          "type": "uint256"
        },
        {
          "internalType": "uint256",
          "name": "reputationScore",
          "type": "uint256"
        }
      ],
      "name": "getPremium",
      "outputs": [],
      "stateMutability": "payable",
      "type": "function"
    },
    {
      "inputs": [
        {
          "internalType": "address",
          "name": "_storageProvider",
          "type": "address"
        }
      ],
      "name": "getRegisteredStorageProvider",
      "outputs": [
        {
          "components": [
            {
              "internalType": "bool",
              "name": "isInsured",
              "type": "bool"
            },
            {
              "internalType": "address",
              "name": "payeeAddress",
              "type": "address"
            },
            {
              "internalType": "uint256",
              "name": "timesPremiumPaid",
              "type": "uint256"
            },
            {
              "internalType": "uint256",
              "name": "premiumStartTime",
              "type": "uint256"
            },
            {
              "internalType": "uint256",
              "name": "premiumEndTime",
              "type": "uint256"
            },
            {
              "internalType": "uint256",
              "name": "timeOfLastPremiumPayment",
              "type": "uint256"
            },
            {
              "internalType": "uint256",
              "name": "regularPremiumAmount",
              "type": "uint256"
            },
            {
              "internalType": "uint256",
              "name": "claimAmount",
              "type": "uint256"
            },
            {
              "internalType": "bool",
              "name": "claimPaid",
              "type": "bool"
            }
          ],
          "internalType": "struct FilecoinInsurance.insuranceIssuee",
          "name": "",
          "type": "tuple"
        }
      ],
      "stateMutability": "view",
      "type": "function"
    },
    {
      "inputs": [
        {
          "internalType": "address",
          "name": "",
          "type": "address"
        }
      ],
      "name": "insuranceIssuees",
      "outputs": [
        {
          "internalType": "bool",
          "name": "isInsured",
          "type": "bool"
        },
        {
          "internalType": "address",
          "name": "payeeAddress",
          "type": "address"
        },
        {
          "internalType": "uint256",
          "name": "timesPremiumPaid",
          "type": "uint256"
        },
        {
          "internalType": "uint256",
          "name": "premiumStartTime",
          "type": "uint256"
        },
        {
          "internalType": "uint256",
          "name": "premiumEndTime",
          "type": "uint256"
        },
        {
          "internalType": "uint256",
          "name": "timeOfLastPremiumPayment",
          "type": "uint256"
        },
        {
          "internalType": "uint256",
          "name": "regularPremiumAmount",
          "type": "uint256"
        },
        {
          "internalType": "uint256",
          "name": "claimAmount",
          "type": "uint256"
        },
        {
          "internalType": "bool",
          "name": "claimPaid",
          "type": "bool"
        }
      ],
      "stateMutability": "view",
      "type": "function"
    },
    {
      "inputs": [],
      "name": "owner",
      "outputs": [
        {
          "internalType": "address",
          "name": "",
          "type": "address"
        }
      ],
      "stateMutability": "view",
      "type": "function"
    },
    {
      "inputs": [],
      "name": "raiseClaimRequest",
      "outputs": [],
      "stateMutability": "nonpayable",
      "type": "function"
    },
    {
      "inputs": [
        {
          "internalType": "address",
          "name": "_storageProvider",
          "type": "address"
        },
        {
          "internalType": "string",
          "name": "_storageProviderID",
          "type": "string"
        }
      ],
      "name": "registerStorageProvider",
      "outputs": [],
      "stateMutability": "nonpayable",
      "type": "function"
    },
    {
      "inputs": [],
      "name": "renounceOwnership",
      "outputs": [],
      "stateMutability": "nonpayable",
      "type": "function"
    },
    {
      "inputs": [
        {
          "internalType": "address",
          "name": "newOwner",
          "type": "address"
        }
      ],
      "name": "transferOwnership",
      "outputs": [],
      "stateMutability": "nonpayable",
      "type": "function"
    }
  ],
  "transactionHash": "0x85d787f4a20f06f028ce6a429276438348bd58e18c86d2a7856676658d6f311c",
  "args": [
    2592000,
    31104000,
    "0xE0e0Dd37299c2d019658639fb01db4c312528d73"
  ],
  "numDeployments": 1,
  "solcInputHash": "49d4768e6ee06357af2550fe27fffdc1",
  "bytecode": "0x60806040523480156200001157600080fd5b50604051620029c7380380620029c7833981810160405281019062000037919062000264565b620000576200004b620000db60201b60201c565b620000e360201b60201c565b60018081905550826005819055506200008462069780600554620001a760201b620010a51790919060201c565b6006819055508160048190555080600760006101000a81548173ffffffffffffffffffffffffffffffffffffffff021916908373ffffffffffffffffffffffffffffffffffffffff1602179055505050506200032a565b600033905090565b60008060009054906101000a900473ffffffffffffffffffffffffffffffffffffffff169050816000806101000a81548173ffffffffffffffffffffffffffffffffffffffff021916908373ffffffffffffffffffffffffffffffffffffffff1602179055508173ffffffffffffffffffffffffffffffffffffffff168173ffffffffffffffffffffffffffffffffffffffff167f8be0079c531659141344cd1fd0a4f28419497f9722a3daafe3b4186f6b6457e060405160405180910390a35050565b60008183620001b79190620002ef565b905092915050565b600080fd5b6000819050919050565b620001d981620001c4565b8114620001e557600080fd5b50565b600081519050620001f981620001ce565b92915050565b600073ffffffffffffffffffffffffffffffffffffffff82169050919050565b60006200022c82620001ff565b9050919050565b6200023e816200021f565b81146200024a57600080fd5b50565b6000815190506200025e8162000233565b92915050565b60008060006060848603121562000280576200027f620001bf565b5b60006200029086828701620001e8565b9350506020620002a386828701620001e8565b9250506040620002b6868287016200024d565b9150509250925092565b7f4e487b7100000000000000000000000000000000000000000000000000000000600052601160045260246000fd5b6000620002fc82620001c4565b91506200030983620001c4565b9250828201905080821115620003245762000323620002c0565b5b92915050565b61268d806200033a6000396000f3fe6080604052600436106100a75760003560e01c80638da5cb5b116100645780638da5cb5b146101ad578063dde070e8146101d8578063ec979d9f14610215578063f2fde38b1461022c578063f619fb8314610255578063fa0f536f14610280576100a7565b80631c4c14fd146100ac5780633fe3c3d5146100d5578063476a3aa514610112578063491c129a1461014f578063715018a61461017a5780638227520814610191575b600080fd5b3480156100b857600080fd5b506100d360048036038101906100ce9190611af2565b6102c5565b005b3480156100e157600080fd5b506100fc60048036038101906100f79190611b4e565b610422565b6040516101099190611c75565b60405180910390f35b34801561011e57600080fd5b5061013960048036038101906101349190611cbd565b610544565b6040516101469190611d1f565b60405180910390f35b34801561015b57600080fd5b50610164610628565b6040516101719190611d1f565b60405180910390f35b34801561018657600080fd5b5061018f610632565b005b6101ab60048036038101906101a69190611d3a565b610646565b005b3480156101b957600080fd5b506101c261097c565b6040516101cf9190611d89565b60405180910390f35b3480156101e457600080fd5b506101ff60048036038101906101fa9190611b4e565b6109a5565b60405161020c9190611d1f565b60405180910390f35b34801561022157600080fd5b5061022a6109f1565b005b34801561023857600080fd5b50610253600480360381019061024e9190611b4e565b610f90565b005b34801561026157600080fd5b5061026a611013565b6040516102779190611d1f565b60405180910390f35b34801561028c57600080fd5b506102a760048036038101906102a29190611b4e565b61101d565b6040516102bc99989796959493929190611db3565b60405180910390f35b6102cd6110bb565b6000600760009054906101000a900473ffffffffffffffffffffffffffffffffffffffff1673ffffffffffffffffffffffffffffffffffffffff1663b9b837f0836040518263ffffffff1660e01b815260040161032a9190611ebf565b6020604051808303816000875af1158015610349573d6000803e3d6000fd5b505050506040513d601f19601f8201168201806040525081019061036d9190611ef6565b90506000600760009054906101000a900473ffffffffffffffffffffffffffffffffffffffff1673ffffffffffffffffffffffffffffffffffffffff16637e0dda15846040518263ffffffff1660e01b81526004016103cc9190611ebf565b6020604051808303816000875af11580156103eb573d6000803e3d6000fd5b505050506040513d601f19601f8201168201806040525081019061040f9190611ef6565b905061041c848383611139565b50505050565b61042a6118d4565b600860008373ffffffffffffffffffffffffffffffffffffffff1673ffffffffffffffffffffffffffffffffffffffff168152602001908152602001600020604051806101200160405290816000820160009054906101000a900460ff161515151581526020016000820160019054906101000a900473ffffffffffffffffffffffffffffffffffffffff1673ffffffffffffffffffffffffffffffffffffffff1673ffffffffffffffffffffffffffffffffffffffff1681526020016001820154815260200160028201548152602001600382015481526020016004820154815260200160058201548152602001600682015481526020016007820160009054906101000a900460ff1615151515815250509050919050565b6000806105756064610567670de0b6b3a76400008761150f90919063ffffffff16565b61152590919063ffffffff16565b90506000600860008573ffffffffffffffffffffffffffffffffffffffff1673ffffffffffffffffffffffffffffffffffffffff1681526020019081526020016000206005015490506000610619670de0b6b3a764000061060b856105fd8b6105ef670de0b6b3a76400008961150f90919063ffffffff16565b61152590919063ffffffff16565b61152590919063ffffffff16565b61150f90919063ffffffff16565b90508093505050509392505050565b6000600454905090565b61063a6110bb565b610644600061153b565b565b33610650816115ff565b61068f576040517f08c379a000000000000000000000000000000000000000000000000000000000815260040161068690611f6f565b60405180910390fd5b6106988161166f565b6106d7576040517f08c379a00000000000000000000000000000000000000000000000000000000081526004016106ce90611fdb565b60405180910390fd5b6106e0816116db565b61071f576040517f08c379a000000000000000000000000000000000000000000000000000000000815260040161071690612047565b60405180910390fd5b60001515600860008373ffffffffffffffffffffffffffffffffffffffff1673ffffffffffffffffffffffffffffffffffffffff16815260200190815260200160002060070160009054906101000a900460ff161515146107b5576040517f08c379a00000000000000000000000000000000000000000000000000000000081526004016107ac906120b3565b60405180910390fd5b6107be81611771565b6107fd576040517f08c379a00000000000000000000000000000000000000000000000000000000081526004016107f49061211f565b60405180910390fd5b600061080a848433610544565b905080341461084e576040517f08c379a00000000000000000000000000000000000000000000000000000000081526004016108459061218b565b60405180910390fd5b6108a46001600860003373ffffffffffffffffffffffffffffffffffffffff1673ffffffffffffffffffffffffffffffffffffffff168152602001908152602001600020600101546110a590919063ffffffff16565b600860003373ffffffffffffffffffffffffffffffffffffffff1673ffffffffffffffffffffffffffffffffffffffff1681526020019081526020016000206001018190555042600860003373ffffffffffffffffffffffffffffffffffffffff1673ffffffffffffffffffffffffffffffffffffffff16815260200190815260200160002060040181905550423373ffffffffffffffffffffffffffffffffffffffff16347ffbf1458fbbddabb878de144276216e8ccda619cbac2d598e6ee37ff72173afb160405160405180910390a450505050565b60008060009054906101000a900473ffffffffffffffffffffffffffffffffffffffff16905090565b6000600860008373ffffffffffffffffffffffffffffffffffffffff1673ffffffffffffffffffffffffffffffffffffffff168152602001908152602001600020600601549050919050565b6109f961185e565b33610a03816115ff565b610a42576040517f08c379a0000000000000000000000000000000000000000000000000000000008152600401610a3990611f6f565b60405180910390fd5b610a4b8161166f565b610a8a576040517f08c379a0000000000000000000000000000000000000000000000000000000008152600401610a8190611fdb565b60405180910390fd5b60001515600860008373ffffffffffffffffffffffffffffffffffffffff1673ffffffffffffffffffffffffffffffffffffffff16815260200190815260200160002060070160009054906101000a900460ff16151514610b20576040517f08c379a0000000000000000000000000000000000000000000000000000000008152600401610b17906120b3565b60405180910390fd5b6000610b77600860008473ffffffffffffffffffffffffffffffffffffffff1673ffffffffffffffffffffffffffffffffffffffff16815260200190815260200160002060020154426118ad90919063ffffffff16565b90506000610c12600860008573ffffffffffffffffffffffffffffffffffffffff1673ffffffffffffffffffffffffffffffffffffffff16815260200190815260200160002060020154600860008673ffffffffffffffffffffffffffffffffffffffff1673ffffffffffffffffffffffffffffffffffffffff168152602001908152602001600020600301546118ad90919063ffffffff16565b9050610c3b6003610c2d60028461150f90919063ffffffff16565b61152590919063ffffffff16565b821015610c7d576040517f08c379a0000000000000000000000000000000000000000000000000000000008152600401610c749061221d565b60405180910390fd5b6000600760009054906101000a900473ffffffffffffffffffffffffffffffffffffffff1673ffffffffffffffffffffffffffffffffffffffff166316f65d80336040518263ffffffff1660e01b8152600401610cda9190611d89565b6020604051808303816000875af1158015610cf9573d6000803e3d6000fd5b505050506040513d601f19601f82011682018060405250810190610d1d9190612269565b90508015610efb576001600860003373ffffffffffffffffffffffffffffffffffffffff1673ffffffffffffffffffffffffffffffffffffffff16815260200190815260200160002060070160006101000a81548160ff02191690831515021790555060003373ffffffffffffffffffffffffffffffffffffffff16600860003373ffffffffffffffffffffffffffffffffffffffff1673ffffffffffffffffffffffffffffffffffffffff16815260200190815260200160002060060154604051610de8906122c7565b60006040518083038185875af1925050503d8060008114610e25576040519150601f19603f3d011682016040523d82523d6000602084013e610e2a565b606091505b5050905080610e6e576040517f08c379a0000000000000000000000000000000000000000000000000000000008152600401610e6590612328565b60405180910390fd5b423373ffffffffffffffffffffffffffffffffffffffff16600860003373ffffffffffffffffffffffffffffffffffffffff1673ffffffffffffffffffffffffffffffffffffffff168152602001908152602001600020600601547faf3c8fdd75d667f71d36d7840b8ef9086c516c9b047ad6a83a5a66151342123a60405160405180910390a450610f82565b3373ffffffffffffffffffffffffffffffffffffffff16600860003373ffffffffffffffffffffffffffffffffffffffff1673ffffffffffffffffffffffffffffffffffffffff168152602001908152602001600020600601547f22fadfffa9b3978ef60c97c46a0e6c38040d03db462e6cec7e09cff08c0aa41460405160405180910390a35b50505050610f8e6118c3565b565b610f986110bb565b600073ffffffffffffffffffffffffffffffffffffffff168173ffffffffffffffffffffffffffffffffffffffff1603611007576040517f08c379a0000000000000000000000000000000000000000000000000000000008152600401610ffe906123ba565b60405180910390fd5b6110108161153b565b50565b6000600554905090565b60086020528060005260406000206000915090508060000160009054906101000a900460ff16908060000160019054906101000a900473ffffffffffffffffffffffffffffffffffffffff16908060010154908060020154908060030154908060040154908060050154908060060154908060070160009054906101000a900460ff16905089565b600081836110b39190612409565b905092915050565b6110c36118cc565b73ffffffffffffffffffffffffffffffffffffffff166110e161097c565b73ffffffffffffffffffffffffffffffffffffffff1614611137576040517f08c379a000000000000000000000000000000000000000000000000000000000815260040161112e90612489565b60405180910390fd5b565b60001515600860008573ffffffffffffffffffffffffffffffffffffffff1673ffffffffffffffffffffffffffffffffffffffff16815260200190815260200160002060000160009054906101000a900460ff161515146111cf576040517f08c379a00000000000000000000000000000000000000000000000000000000081526004016111c6906124f5565b60405180910390fd5b6001600860008573ffffffffffffffffffffffffffffffffffffffff1673ffffffffffffffffffffffffffffffffffffffff16815260200190815260200160002060000160006101000a81548160ff02191690831515021790555082600860008573ffffffffffffffffffffffffffffffffffffffff1673ffffffffffffffffffffffffffffffffffffffff16815260200190815260200160002060000160016101000a81548173ffffffffffffffffffffffffffffffffffffffff021916908373ffffffffffffffffffffffffffffffffffffffff1602179055506000600860008573ffffffffffffffffffffffffffffffffffffffff1673ffffffffffffffffffffffffffffffffffffffff1681526020019081526020016000206001018190555042600860008573ffffffffffffffffffffffffffffffffffffffff1673ffffffffffffffffffffffffffffffffffffffff1681526020019081526020016000206002018190555061134f600454426110a590919063ffffffff16565b600860008573ffffffffffffffffffffffffffffffffffffffff1673ffffffffffffffffffffffffffffffffffffffff1681526020019081526020016000206003018190555081600860008573ffffffffffffffffffffffffffffffffffffffff1673ffffffffffffffffffffffffffffffffffffffff1681526020019081526020016000206005018190555080600860008573ffffffffffffffffffffffffffffffffffffffff1673ffffffffffffffffffffffffffffffffffffffff1681526020019081526020016000206006018190555042600860008573ffffffffffffffffffffffffffffffffffffffff1673ffffffffffffffffffffffffffffffffffffffff168152602001908152602001600020600401819055506000600860008573ffffffffffffffffffffffffffffffffffffffff1673ffffffffffffffffffffffffffffffffffffffff16815260200190815260200160002060070160006101000a81548160ff02191690831515021790555080828473ffffffffffffffffffffffffffffffffffffffff167f82836817c2b3e7521f50f18c4585b1cfd9d6b9df32f4e2efc305f98c926c05f260405160405180910390a4505050565b6000818361151d9190612515565b905092915050565b600081836115339190612586565b905092915050565b60008060009054906101000a900473ffffffffffffffffffffffffffffffffffffffff169050816000806101000a81548173ffffffffffffffffffffffffffffffffffffffff021916908373ffffffffffffffffffffffffffffffffffffffff1602179055508173ffffffffffffffffffffffffffffffffffffffff168173ffffffffffffffffffffffffffffffffffffffff167f8be0079c531659141344cd1fd0a4f28419497f9722a3daafe3b4186f6b6457e060405160405180910390a35050565b600060011515600860008473ffffffffffffffffffffffffffffffffffffffff1673ffffffffffffffffffffffffffffffffffffffff16815260200190815260200160002060000160009054906101000a900460ff16151503611665576001905061166a565b600090505b919050565b6000804290506000600860008573ffffffffffffffffffffffffffffffffffffffff1673ffffffffffffffffffffffffffffffffffffffff168152602001908152602001600020600301549050808210156116cf576001925050506116d6565b6000925050505b919050565b600080600860008473ffffffffffffffffffffffffffffffffffffffff1673ffffffffffffffffffffffffffffffffffffffff1681526020019081526020016000206004015490506000429050600061173d83836118ad90919063ffffffff16565b9050600554811015801561175357506006548111155b15611764576001935050505061176c565b600093505050505b919050565b600080600860008473ffffffffffffffffffffffffffffffffffffffff1673ffffffffffffffffffffffffffffffffffffffff1681526020019081526020016000206001015490506000600860008573ffffffffffffffffffffffffffffffffffffffff1673ffffffffffffffffffffffffffffffffffffffff16815260200190815260200160002060020154905060006005549050600061182e8261182085426118ad90919063ffffffff16565b61152590919063ffffffff16565b905060018161183d91906125b7565b8403611850576001945050505050611859565b60009450505050505b919050565b6002600154036118a3576040517f08c379a000000000000000000000000000000000000000000000000000000000815260040161189a90612637565b60405180910390fd5b6002600181905550565b600081836118bb91906125b7565b905092915050565b60018081905550565b600033905090565b604051806101200160405280600015158152602001600073ffffffffffffffffffffffffffffffffffffffff1681526020016000815260200160008152602001600081526020016000815260200160008152602001600081526020016000151581525090565b6000604051905090565b600080fd5b600080fd5b600073ffffffffffffffffffffffffffffffffffffffff82169050919050565b60006119798261194e565b9050919050565b6119898161196e565b811461199457600080fd5b50565b6000813590506119a681611980565b92915050565b600080fd5b600080fd5b6000601f19601f8301169050919050565b7f4e487b7100000000000000000000000000000000000000000000000000000000600052604160045260246000fd5b6119ff826119b6565b810181811067ffffffffffffffff82111715611a1e57611a1d6119c7565b5b80604052505050565b6000611a3161193a565b9050611a3d82826119f6565b919050565b600067ffffffffffffffff821115611a5d57611a5c6119c7565b5b611a66826119b6565b9050602081019050919050565b82818337600083830152505050565b6000611a95611a9084611a42565b611a27565b905082815260208101848484011115611ab157611ab06119b1565b5b611abc848285611a73565b509392505050565b600082601f830112611ad957611ad86119ac565b5b8135611ae9848260208601611a82565b91505092915050565b60008060408385031215611b0957611b08611944565b5b6000611b1785828601611997565b925050602083013567ffffffffffffffff811115611b3857611b37611949565b5b611b4485828601611ac4565b9150509250929050565b600060208284031215611b6457611b63611944565b5b6000611b7284828501611997565b91505092915050565b60008115159050919050565b611b9081611b7b565b82525050565b611b9f8161196e565b82525050565b6000819050919050565b611bb881611ba5565b82525050565b61012082016000820151611bd56000850182611b87565b506020820151611be86020850182611b96565b506040820151611bfb6040850182611baf565b506060820151611c0e6060850182611baf565b506080820151611c216080850182611baf565b5060a0820151611c3460a0850182611baf565b5060c0820151611c4760c0850182611baf565b5060e0820151611c5a60e0850182611baf565b50610100820151611c6f610100850182611b87565b50505050565b600061012082019050611c8b6000830184611bbe565b92915050565b611c9a81611ba5565b8114611ca557600080fd5b50565b600081359050611cb781611c91565b92915050565b600080600060608486031215611cd657611cd5611944565b5b6000611ce486828701611ca8565b9350506020611cf586828701611ca8565b9250506040611d0686828701611997565b9150509250925092565b611d1981611ba5565b82525050565b6000602082019050611d346000830184611d10565b92915050565b60008060408385031215611d5157611d50611944565b5b6000611d5f85828601611ca8565b9250506020611d7085828601611ca8565b9150509250929050565b611d838161196e565b82525050565b6000602082019050611d9e6000830184611d7a565b92915050565b611dad81611b7b565b82525050565b600061012082019050611dc9600083018c611da4565b611dd6602083018b611d7a565b611de3604083018a611d10565b611df06060830189611d10565b611dfd6080830188611d10565b611e0a60a0830187611d10565b611e1760c0830186611d10565b611e2460e0830185611d10565b611e32610100830184611da4565b9a9950505050505050505050565b600081519050919050565b600082825260208201905092915050565b60005b83811015611e7a578082015181840152602081019050611e5f565b60008484015250505050565b6000611e9182611e40565b611e9b8185611e4b565b9350611eab818560208601611e5c565b611eb4816119b6565b840191505092915050565b60006020820190508181036000830152611ed98184611e86565b905092915050565b600081519050611ef081611c91565b92915050565b600060208284031215611f0c57611f0b611944565b5b6000611f1a84828501611ee1565b91505092915050565b7f4e6f742072656769737465726564000000000000000000000000000000000000600082015250565b6000611f59600e83611e4b565b9150611f6482611f23565b602082019050919050565b60006020820190508181036000830152611f8881611f4c565b9050919050565b7f496e737572616e63652065787069726564000000000000000000000000000000600082015250565b6000611fc5601183611e4b565b9150611fd082611f8f565b602082019050919050565b60006020820190508181036000830152611ff481611fb8565b9050919050565b7f5072656d69756d207061796d656e742074696d65206e6f742072656163686564600082015250565b6000612031602083611e4b565b915061203c82611ffb565b602082019050919050565b6000602082019050818103600083015261206081612024565b9050919050565b7f436c61696d20616c726561647920706169640000000000000000000000000000600082015250565b600061209d601283611e4b565b91506120a882612067565b602082019050919050565b600060208201905081810360008301526120cc81612090565b9050919050565b7f50726576696f7573207072656d69756d73206e6f742070616964000000000000600082015250565b6000612109601a83611e4b565b9150612114826120d3565b602082019050919050565b60006020820190508181036000830152612138816120fc565b9050919050565b7f496e636f7272656374207072656d69756d20616d6f756e740000000000000000600082015250565b6000612175601883611e4b565b91506121808261213f565b602082019050919050565b600060208201905081810360008301526121a481612168565b9050919050565b7f4d696e696d756e206475726174696f6e20746f20636c61696d20696e7375726160008201527f6e6365206e6f7420726561636865640000000000000000000000000000000000602082015250565b6000612207602f83611e4b565b9150612212826121ab565b604082019050919050565b60006020820190508181036000830152612236816121fa565b9050919050565b61224681611b7b565b811461225157600080fd5b50565b6000815190506122638161223d565b92915050565b60006020828403121561227f5761227e611944565b5b600061228d84828501612254565b91505092915050565b600081905092915050565b50565b60006122b1600083612296565b91506122bc826122a1565b600082019050919050565b60006122d2826122a4565b9150819050919050565b7f5472616e73666572206661696c65642e00000000000000000000000000000000600082015250565b6000612312601083611e4b565b915061231d826122dc565b602082019050919050565b6000602082019050818103600083015261234181612305565b9050919050565b7f4f776e61626c653a206e6577206f776e657220697320746865207a65726f206160008201527f6464726573730000000000000000000000000000000000000000000000000000602082015250565b60006123a4602683611e4b565b91506123af82612348565b604082019050919050565b600060208201905081810360008301526123d381612397565b9050919050565b7f4e487b7100000000000000000000000000000000000000000000000000000000600052601160045260246000fd5b600061241482611ba5565b915061241f83611ba5565b9250828201905080821115612437576124366123da565b5b92915050565b7f4f776e61626c653a2063616c6c6572206973206e6f7420746865206f776e6572600082015250565b6000612473602083611e4b565b915061247e8261243d565b602082019050919050565b600060208201905081810360008301526124a281612466565b9050919050565b7f416c726561647920726567697374657265640000000000000000000000000000600082015250565b60006124df601283611e4b565b91506124ea826124a9565b602082019050919050565b6000602082019050818103600083015261250e816124d2565b9050919050565b600061252082611ba5565b915061252b83611ba5565b925082820261253981611ba5565b915082820484148315176125505761254f6123da565b5b5092915050565b7f4e487b7100000000000000000000000000000000000000000000000000000000600052601260045260246000fd5b600061259182611ba5565b915061259c83611ba5565b9250826125ac576125ab612557565b5b828204905092915050565b60006125c282611ba5565b91506125cd83611ba5565b92508282039050818111156125e5576125e46123da565b5b92915050565b7f5265656e7472616e637947756172643a207265656e7472616e742063616c6c00600082015250565b6000612621601f83611e4b565b915061262c826125eb565b602082019050919050565b6000602082019050818103600083015261265081612614565b905091905056fea2646970667358221220ffbc7e2f1d1e665fad5364198d3b1e9555ba58172b9d4795716191fa37b111a064736f6c63430008110033",
  "devdoc": {
    "kind": "dev",
    "methods": {
      "constructor": {
        "details": "Sets the coverage amount, periodic premium and insurance duration",
        "params": {
          "_durationBetweenPayments": "Minimum duration between payments",
          "_insuranceDuration": "Duration of the insurance",
          "_verifierAddress": "Address of the verifier contract"
        }
      },
      "getPremium(uint256,uint256)": {
        "details": "Only valid storage provider can pay premium",
        "params": {
          "FILPrice": "Current FIL price"
        }
      },
      "owner()": {
        "details": "Returns the address of the current owner."
      },
      "renounceOwnership()": {
        "details": "Leaves the contract without owner. It will not be possible to call `onlyOwner` functions anymore. Can only be called by the current owner. NOTE: Renouncing ownership will leave the contract without an owner, thereby removing any functionality that is only available to the owner."
      },
      "transferOwnership(address)": {
        "details": "Transfers ownership of the contract to a new account (`newOwner`). Can only be called by the current owner."
      }
    },
    "version": 1
  },
  "userdoc": {
    "kind": "user",
    "methods": {
      "constructor": {
        "notice": "Constructor for the contract"
      },
      "getPremium(uint256,uint256)": {
        "notice": "Pay premium"
      }
    },
    "version": 1
  },
  "storageLayout": {
    "storage": [
      {
        "astId": 7,
        "contract": "contracts/FilecoinInsurance.sol:FilecoinInsurance",
        "label": "_owner",
        "offset": 0,
        "slot": "0",
        "type": "t_address"
      },
      {
        "astId": 123,
        "contract": "contracts/FilecoinInsurance.sol:FilecoinInsurance",
        "label": "_status",
        "offset": 0,
        "slot": "1",
        "type": "t_uint256"
      },
      {
        "astId": 517,
        "contract": "contracts/FilecoinInsurance.sol:FilecoinInsurance",
        "label": "coverageAmount",
        "offset": 0,
        "slot": "2",
        "type": "t_uint256"
      },
      {
        "astId": 519,
        "contract": "contracts/FilecoinInsurance.sol:FilecoinInsurance",
        "label": "periodicPremium",
        "offset": 0,
        "slot": "3",
        "type": "t_uint256"
      },
      {
        "astId": 521,
        "contract": "contracts/FilecoinInsurance.sol:FilecoinInsurance",
        "label": "insuranceDuration",
        "offset": 0,
        "slot": "4",
        "type": "t_uint256"
      },
      {
        "astId": 523,
        "contract": "contracts/FilecoinInsurance.sol:FilecoinInsurance",
        "label": "minDurationBetweenPayments",
        "offset": 0,
        "slot": "5",
        "type": "t_uint256"
      },
      {
        "astId": 525,
        "contract": "contracts/FilecoinInsurance.sol:FilecoinInsurance",
        "label": "maxDurationBetweenPayments",
        "offset": 0,
        "slot": "6",
        "type": "t_uint256"
      },
      {
        "astId": 527,
        "contract": "contracts/FilecoinInsurance.sol:FilecoinInsurance",
        "label": "verifierAddress",
        "offset": 0,
        "slot": "7",
        "type": "t_address"
      },
      {
        "astId": 551,
        "contract": "contracts/FilecoinInsurance.sol:FilecoinInsurance",
        "label": "insuranceIssuees",
        "offset": 0,
        "slot": "8",
        "type": "t_mapping(t_address,t_struct(insuranceIssuee)546_storage)"
      }
    ],
    "types": {
      "t_address": {
        "encoding": "inplace",
        "label": "address",
        "numberOfBytes": "20"
      },
      "t_bool": {
        "encoding": "inplace",
        "label": "bool",
        "numberOfBytes": "1"
      },
      "t_mapping(t_address,t_struct(insuranceIssuee)546_storage)": {
        "encoding": "mapping",
        "key": "t_address",
        "label": "mapping(address => struct FilecoinInsurance.insuranceIssuee)",
        "numberOfBytes": "32",
        "value": "t_struct(insuranceIssuee)546_storage"
      },
      "t_struct(insuranceIssuee)546_storage": {
        "encoding": "inplace",
        "label": "struct FilecoinInsurance.insuranceIssuee",
        "members": [
          {
            "astId": 529,
            "contract": "contracts/FilecoinInsurance.sol:FilecoinInsurance",
            "label": "isInsured",
            "offset": 0,
            "slot": "0",
            "type": "t_bool"
          },
          {
            "astId": 531,
            "contract": "contracts/FilecoinInsurance.sol:FilecoinInsurance",
            "label": "payeeAddress",
            "offset": 1,
            "slot": "0",
            "type": "t_address"
          },
          {
            "astId": 533,
            "contract": "contracts/FilecoinInsurance.sol:FilecoinInsurance",
            "label": "timesPremiumPaid",
            "offset": 0,
            "slot": "1",
            "type": "t_uint256"
          },
          {
            "astId": 535,
            "contract": "contracts/FilecoinInsurance.sol:FilecoinInsurance",
            "label": "premiumStartTime",
            "offset": 0,
            "slot": "2",
            "type": "t_uint256"
          },
          {
            "astId": 537,
            "contract": "contracts/FilecoinInsurance.sol:FilecoinInsurance",
            "label": "premiumEndTime",
            "offset": 0,
            "slot": "3",
            "type": "t_uint256"
          },
          {
            "astId": 539,
            "contract": "contracts/FilecoinInsurance.sol:FilecoinInsurance",
            "label": "timeOfLastPremiumPayment",
            "offset": 0,
            "slot": "4",
            "type": "t_uint256"
          },
          {
            "astId": 541,
            "contract": "contracts/FilecoinInsurance.sol:FilecoinInsurance",
            "label": "regularPremiumAmount",
            "offset": 0,
            "slot": "5",
            "type": "t_uint256"
          },
          {
            "astId": 543,
            "contract": "contracts/FilecoinInsurance.sol:FilecoinInsurance",
            "label": "claimAmount",
            "offset": 0,
            "slot": "6",
            "type": "t_uint256"
          },
          {
            "astId": 545,
            "contract": "contracts/FilecoinInsurance.sol:FilecoinInsurance",
            "label": "claimPaid",
            "offset": 0,
            "slot": "7",
            "type": "t_bool"
          }
        ],
        "numberOfBytes": "256"
      },
      "t_uint256": {
        "encoding": "inplace",
        "label": "uint256",
        "numberOfBytes": "32"
      }
    }
  }
}