{
  "address": "0x5FbDB2315678afecb367f032d93F642f64180aa3",
  "abi": [
    {
      "inputs": [
        {
          "internalType": "uint256",
          "name": "_durationBetweenPayments",
          "type": "uint256"
        },
        {
          "internalType": "uint256",
          "name": "_insuranceDuration",
          "type": "uint256"
        }
      ],
      "stateMutability": "nonpayable",
      "type": "constructor"
    },
    {
      "anonymous": false,
      "inputs": [
        {
          "indexed": true,
          "internalType": "uint256",
          "name": "coverageAmount",
          "type": "uint256"
        },
        {
          "indexed": true,
          "internalType": "uint256",
          "name": "periodicPremium",
          "type": "uint256"
        },
        {
          "indexed": true,
          "internalType": "uint256",
          "name": "insuranceDuration",
          "type": "uint256"
        },
        {
          "indexed": false,
          "internalType": "uint256",
          "name": "minDurationBetweenPayments",
          "type": "uint256"
        },
        {
          "indexed": false,
          "internalType": "uint256",
          "name": "maxDurationBetweenPayments",
          "type": "uint256"
        }
      ],
      "name": "InsuranceVariablesAdjusted",
      "type": "event"
    },
    {
      "anonymous": false,
      "inputs": [
        {
          "indexed": true,
          "internalType": "address",
          "name": "previousOwner",
          "type": "address"
        },
        {
          "indexed": true,
          "internalType": "address",
          "name": "newOwner",
          "type": "address"
        }
      ],
      "name": "OwnershipTransferred",
      "type": "event"
    },
    {
      "anonymous": false,
      "inputs": [
        {
          "indexed": true,
          "internalType": "uint256",
          "name": "paidAmount",
          "type": "uint256"
        },
        {
          "indexed": true,
          "internalType": "address",
          "name": "payeeAddress",
          "type": "address"
        },
        {
          "indexed": true,
          "internalType": "uint256",
          "name": "timeOfPayment",
          "type": "uint256"
        }
      ],
      "name": "PremiumPaid",
      "type": "event"
    },
    {
      "anonymous": false,
      "inputs": [
        {
          "indexed": true,
          "internalType": "address",
          "name": "storageProvider",
          "type": "address"
        },
        {
          "indexed": true,
          "internalType": "uint256",
          "name": "periodicPremium",
          "type": "uint256"
        },
        {
          "indexed": true,
          "internalType": "uint256",
          "name": "claimAmount",
          "type": "uint256"
        }
      ],
      "name": "StorageProviderReistered",
      "type": "event"
    },
    {
      "inputs": [],
      "name": "getDurationBetweenPayments",
      "outputs": [
        {
          "internalType": "uint256",
          "name": "",
          "type": "uint256"
        }
      ],
      "stateMutability": "view",
      "type": "function"
    },
    {
      "inputs": [],
      "name": "getInsuranceDuration",
      "outputs": [
        {
          "internalType": "uint256",
          "name": "",
          "type": "uint256"
        }
      ],
      "stateMutability": "view",
      "type": "function"
    },
    {
      "inputs": [
        {
          "internalType": "uint256",
          "name": "FILPrice",
          "type": "uint256"
        }
      ],
      "name": "getPremium",
      "outputs": [],
      "stateMutability": "payable",
      "type": "function"
    },
    {
      "inputs": [
        {
          "internalType": "address",
          "name": "_storageProvider",
          "type": "address"
        }
      ],
      "name": "getRegisteredStorageProvider",
      "outputs": [
        {
          "components": [
            {
              "internalType": "bool",
              "name": "isInsured",
              "type": "bool"
            },
            {
              "internalType": "address",
              "name": "payeeAddress",
              "type": "address"
            },
            {
              "internalType": "uint256",
              "name": "timesPremiumPaid",
              "type": "uint256"
            },
            {
              "internalType": "uint256",
              "name": "premiumStartTime",
              "type": "uint256"
            },
            {
              "internalType": "uint256",
              "name": "premiumEndTime",
              "type": "uint256"
            },
            {
              "internalType": "uint256",
              "name": "timeOfLastPremiumPayment",
              "type": "uint256"
            },
            {
              "internalType": "uint256",
              "name": "regularPremiumAmount",
              "type": "uint256"
            },
            {
              "internalType": "uint256",
              "name": "claimAmount",
              "type": "uint256"
            },
            {
              "internalType": "bool",
              "name": "claimPaid",
              "type": "bool"
            }
          ],
          "internalType": "struct FilecoinInsurance.insuranceIssuee",
          "name": "",
          "type": "tuple"
        }
      ],
      "stateMutability": "view",
      "type": "function"
    },
    {
      "inputs": [
        {
          "internalType": "address",
          "name": "",
          "type": "address"
        }
      ],
      "name": "insuranceIssuees",
      "outputs": [
        {
          "internalType": "bool",
          "name": "isInsured",
          "type": "bool"
        },
        {
          "internalType": "address",
          "name": "payeeAddress",
          "type": "address"
        },
        {
          "internalType": "uint256",
          "name": "timesPremiumPaid",
          "type": "uint256"
        },
        {
          "internalType": "uint256",
          "name": "premiumStartTime",
          "type": "uint256"
        },
        {
          "internalType": "uint256",
          "name": "premiumEndTime",
          "type": "uint256"
        },
        {
          "internalType": "uint256",
          "name": "timeOfLastPremiumPayment",
          "type": "uint256"
        },
        {
          "internalType": "uint256",
          "name": "regularPremiumAmount",
          "type": "uint256"
        },
        {
          "internalType": "uint256",
          "name": "claimAmount",
          "type": "uint256"
        },
        {
          "internalType": "bool",
          "name": "claimPaid",
          "type": "bool"
        }
      ],
      "stateMutability": "view",
      "type": "function"
    },
    {
      "inputs": [],
      "name": "owner",
      "outputs": [
        {
          "internalType": "address",
          "name": "",
          "type": "address"
        }
      ],
      "stateMutability": "view",
      "type": "function"
    },
    {
      "inputs": [
        {
          "internalType": "address",
          "name": "storageProvider",
          "type": "address"
        },
        {
          "internalType": "uint256",
          "name": "_periodicPremium",
          "type": "uint256"
        },
        {
          "internalType": "uint256",
          "name": "_claimAmount",
          "type": "uint256"
        }
      ],
      "name": "registerStorageProvider",
      "outputs": [],
      "stateMutability": "nonpayable",
      "type": "function"
    },
    {
      "inputs": [],
      "name": "renounceOwnership",
      "outputs": [],
      "stateMutability": "nonpayable",
      "type": "function"
    },
    {
      "inputs": [
        {
          "internalType": "address",
          "name": "newOwner",
          "type": "address"
        }
      ],
      "name": "transferOwnership",
      "outputs": [],
      "stateMutability": "nonpayable",
      "type": "function"
    }
  ],
  "transactionHash": "0x71db07ffd979def1e264dddc463ea700339e2699d0f907f30129f5f45659ac2c",
  "args": [
    2592000,
    31104000
  ],
  "numDeployments": 1,
  "solcInputHash": "e1c675098a750aa1f13da61393bc3856",
  "bytecode": "0x60806040523480156200001157600080fd5b5060405162001ab538038062001ab58339818101604052810190620000379190620001b6565b620000576200004b6200009260201b60201c565b6200009a60201b60201c565b816004819055506200007d620697806004546200015e60201b62000b0c1790919060201c565b60058190555080600381905550505062000267565b600033905090565b60008060009054906101000a900473ffffffffffffffffffffffffffffffffffffffff169050816000806101000a81548173ffffffffffffffffffffffffffffffffffffffff021916908373ffffffffffffffffffffffffffffffffffffffff1602179055508173ffffffffffffffffffffffffffffffffffffffff168173ffffffffffffffffffffffffffffffffffffffff167f8be0079c531659141344cd1fd0a4f28419497f9722a3daafe3b4186f6b6457e060405160405180910390a35050565b600081836200016e91906200022c565b905092915050565b600080fd5b6000819050919050565b62000190816200017b565b81146200019c57600080fd5b50565b600081519050620001b08162000185565b92915050565b60008060408385031215620001d057620001cf62000176565b5b6000620001e0858286016200019f565b9250506020620001f3858286016200019f565b9150509250929050565b7f4e487b7100000000000000000000000000000000000000000000000000000000600052601160045260246000fd5b600062000239826200017b565b915062000246836200017b565b9250828201905080821115620002615762000260620001fd565b5b92915050565b61183e80620002776000396000f3fe6080604052600436106100865760003560e01c80638da5cb5b116100595780638da5cb5b14610126578063f18e081c14610151578063f2fde38b1461017a578063f619fb83146101a3578063fa0f536f146101ce57610086565b80631bf1fffb1461008b5780633fe3c3d5146100a7578063491c129a146100e4578063715018a61461010f575b600080fd5b6100a560048036038101906100a09190611031565b610213565b005b3480156100b357600080fd5b506100ce60048036038101906100c991906110bc565b6104b0565b6040516100db91906111d9565b60405180910390f35b3480156100f057600080fd5b506100f96105d2565b6040516101069190611204565b60405180910390f35b34801561011b57600080fd5b506101246105dc565b005b34801561013257600080fd5b5061013b6105f0565b604051610148919061122e565b60405180910390f35b34801561015d57600080fd5b5061017860048036038101906101739190611249565b610619565b005b34801561018657600080fd5b506101a1600480360381019061019c91906110bc565b6109f7565b005b3480156101af57600080fd5b506101b8610a7a565b6040516101c59190611204565b60405180910390f35b3480156101da57600080fd5b506101f560048036038101906101f091906110bc565b610a84565b60405161020a999897969594939291906112ab565b60405180910390f35b3361021d81610b22565b61025c576040517f08c379a000000000000000000000000000000000000000000000000000000000815260040161025390611395565b60405180910390fd5b61026581610b92565b6102a4576040517f08c379a000000000000000000000000000000000000000000000000000000000815260040161029b90611401565b60405180910390fd5b6102ad81610bfe565b6102ec576040517f08c379a00000000000000000000000000000000000000000000000000000000081526004016102e39061146d565b60405180910390fd5b6102f581610c94565b610334576040517f08c379a000000000000000000000000000000000000000000000000000000000815260040161032b906114d9565b60405180910390fd5b600061033f83610d81565b9050803414610383576040517f08c379a000000000000000000000000000000000000000000000000000000000815260040161037a90611545565b60405180910390fd5b6103d96001600660003373ffffffffffffffffffffffffffffffffffffffff1673ffffffffffffffffffffffffffffffffffffffff16815260200190815260200160002060010154610b0c90919063ffffffff16565b600660003373ffffffffffffffffffffffffffffffffffffffff1673ffffffffffffffffffffffffffffffffffffffff1681526020019081526020016000206001018190555042600660003373ffffffffffffffffffffffffffffffffffffffff1673ffffffffffffffffffffffffffffffffffffffff16815260200190815260200160002060040181905550423373ffffffffffffffffffffffffffffffffffffffff16347ffbf1458fbbddabb878de144276216e8ccda619cbac2d598e6ee37ff72173afb160405160405180910390a4505050565b6104b8610f90565b600660008373ffffffffffffffffffffffffffffffffffffffff1673ffffffffffffffffffffffffffffffffffffffff168152602001908152602001600020604051806101200160405290816000820160009054906101000a900460ff161515151581526020016000820160019054906101000a900473ffffffffffffffffffffffffffffffffffffffff1673ffffffffffffffffffffffffffffffffffffffff1673ffffffffffffffffffffffffffffffffffffffff1681526020016001820154815260200160028201548152602001600382015481526020016004820154815260200160058201548152602001600682015481526020016007820160009054906101000a900460ff1615151515815250509050919050565b6000600354905090565b6105e4610e04565b6105ee6000610e82565b565b60008060009054906101000a900473ffffffffffffffffffffffffffffffffffffffff16905090565b610621610e04565b60001515600660008573ffffffffffffffffffffffffffffffffffffffff1673ffffffffffffffffffffffffffffffffffffffff16815260200190815260200160002060000160009054906101000a900460ff161515146106b7576040517f08c379a00000000000000000000000000000000000000000000000000000000081526004016106ae906115b1565b60405180910390fd5b6001600660008573ffffffffffffffffffffffffffffffffffffffff1673ffffffffffffffffffffffffffffffffffffffff16815260200190815260200160002060000160006101000a81548160ff02191690831515021790555082600660008573ffffffffffffffffffffffffffffffffffffffff1673ffffffffffffffffffffffffffffffffffffffff16815260200190815260200160002060000160016101000a81548173ffffffffffffffffffffffffffffffffffffffff021916908373ffffffffffffffffffffffffffffffffffffffff1602179055506000600660008573ffffffffffffffffffffffffffffffffffffffff1673ffffffffffffffffffffffffffffffffffffffff1681526020019081526020016000206001018190555042600660008573ffffffffffffffffffffffffffffffffffffffff1673ffffffffffffffffffffffffffffffffffffffff1681526020019081526020016000206002018190555061083760035442610b0c90919063ffffffff16565b600660008573ffffffffffffffffffffffffffffffffffffffff1673ffffffffffffffffffffffffffffffffffffffff1681526020019081526020016000206003018190555081600660008573ffffffffffffffffffffffffffffffffffffffff1673ffffffffffffffffffffffffffffffffffffffff1681526020019081526020016000206005018190555080600660008573ffffffffffffffffffffffffffffffffffffffff1673ffffffffffffffffffffffffffffffffffffffff1681526020019081526020016000206006018190555042600660008573ffffffffffffffffffffffffffffffffffffffff1673ffffffffffffffffffffffffffffffffffffffff168152602001908152602001600020600401819055506000600660008573ffffffffffffffffffffffffffffffffffffffff1673ffffffffffffffffffffffffffffffffffffffff16815260200190815260200160002060070160006101000a81548160ff02191690831515021790555080828473ffffffffffffffffffffffffffffffffffffffff167f82836817c2b3e7521f50f18c4585b1cfd9d6b9df32f4e2efc305f98c926c05f260405160405180910390a4505050565b6109ff610e04565b600073ffffffffffffffffffffffffffffffffffffffff168173ffffffffffffffffffffffffffffffffffffffff1603610a6e576040517f08c379a0000000000000000000000000000000000000000000000000000000008152600401610a6590611643565b60405180910390fd5b610a7781610e82565b50565b6000600454905090565b60066020528060005260406000206000915090508060000160009054906101000a900460ff16908060000160019054906101000a900473ffffffffffffffffffffffffffffffffffffffff16908060010154908060020154908060030154908060040154908060050154908060060154908060070160009054906101000a900460ff16905089565b60008183610b1a9190611692565b905092915050565b600060011515600660008473ffffffffffffffffffffffffffffffffffffffff1673ffffffffffffffffffffffffffffffffffffffff16815260200190815260200160002060000160009054906101000a900460ff16151503610b885760019050610b8d565b600090505b919050565b6000804290506000600660008573ffffffffffffffffffffffffffffffffffffffff1673ffffffffffffffffffffffffffffffffffffffff16815260200190815260200160002060030154905080821015610bf257600192505050610bf9565b6000925050505b919050565b600080600660008473ffffffffffffffffffffffffffffffffffffffff1673ffffffffffffffffffffffffffffffffffffffff16815260200190815260200160002060040154905060004290506000610c608383610f4690919063ffffffff16565b90506004548110158015610c7657506005548111155b15610c875760019350505050610c8f565b600093505050505b919050565b600080600660008473ffffffffffffffffffffffffffffffffffffffff1673ffffffffffffffffffffffffffffffffffffffff1681526020019081526020016000206001015490506000600660008573ffffffffffffffffffffffffffffffffffffffff1673ffffffffffffffffffffffffffffffffffffffff168152602001908152602001600020600201549050600060045490506000610d5182610d438542610f4690919063ffffffff16565b610f5c90919063ffffffff16565b9050600181610d6091906116c6565b8403610d73576001945050505050610d7c565b60009450505050505b919050565b600080600660003373ffffffffffffffffffffffffffffffffffffffff1673ffffffffffffffffffffffffffffffffffffffff1681526020019081526020016000206005015490506000610df8670de0b6b3a7640000610dea8685610f7290919063ffffffff16565b610f5c90919063ffffffff16565b90508092505050919050565b610e0c610f88565b73ffffffffffffffffffffffffffffffffffffffff16610e2a6105f0565b73ffffffffffffffffffffffffffffffffffffffff1614610e80576040517f08c379a0000000000000000000000000000000000000000000000000000000008152600401610e7790611746565b60405180910390fd5b565b60008060009054906101000a900473ffffffffffffffffffffffffffffffffffffffff169050816000806101000a81548173ffffffffffffffffffffffffffffffffffffffff021916908373ffffffffffffffffffffffffffffffffffffffff1602179055508173ffffffffffffffffffffffffffffffffffffffff168173ffffffffffffffffffffffffffffffffffffffff167f8be0079c531659141344cd1fd0a4f28419497f9722a3daafe3b4186f6b6457e060405160405180910390a35050565b60008183610f5491906116c6565b905092915050565b60008183610f6a9190611795565b905092915050565b60008183610f8091906117c6565b905092915050565b600033905090565b604051806101200160405280600015158152602001600073ffffffffffffffffffffffffffffffffffffffff1681526020016000815260200160008152602001600081526020016000815260200160008152602001600081526020016000151581525090565b600080fd5b6000819050919050565b61100e81610ffb565b811461101957600080fd5b50565b60008135905061102b81611005565b92915050565b60006020828403121561104757611046610ff6565b5b60006110558482850161101c565b91505092915050565b600073ffffffffffffffffffffffffffffffffffffffff82169050919050565b60006110898261105e565b9050919050565b6110998161107e565b81146110a457600080fd5b50565b6000813590506110b681611090565b92915050565b6000602082840312156110d2576110d1610ff6565b5b60006110e0848285016110a7565b91505092915050565b60008115159050919050565b6110fe816110e9565b82525050565b61110d8161107e565b82525050565b61111c81610ffb565b82525050565b6101208201600082015161113960008501826110f5565b50602082015161114c6020850182611104565b50604082015161115f6040850182611113565b5060608201516111726060850182611113565b5060808201516111856080850182611113565b5060a082015161119860a0850182611113565b5060c08201516111ab60c0850182611113565b5060e08201516111be60e0850182611113565b506101008201516111d36101008501826110f5565b50505050565b6000610120820190506111ef6000830184611122565b92915050565b6111fe81610ffb565b82525050565b600060208201905061121960008301846111f5565b92915050565b6112288161107e565b82525050565b6000602082019050611243600083018461121f565b92915050565b60008060006060848603121561126257611261610ff6565b5b6000611270868287016110a7565b93505060206112818682870161101c565b92505060406112928682870161101c565b9150509250925092565b6112a5816110e9565b82525050565b6000610120820190506112c1600083018c61129c565b6112ce602083018b61121f565b6112db604083018a6111f5565b6112e860608301896111f5565b6112f560808301886111f5565b61130260a08301876111f5565b61130f60c08301866111f5565b61131c60e08301856111f5565b61132a61010083018461129c565b9a9950505050505050505050565b600082825260208201905092915050565b7f4e6f742072656769737465726564000000000000000000000000000000000000600082015250565b600061137f600e83611338565b915061138a82611349565b602082019050919050565b600060208201905081810360008301526113ae81611372565b9050919050565b7f496e737572616e63652065787069726564000000000000000000000000000000600082015250565b60006113eb601183611338565b91506113f6826113b5565b602082019050919050565b6000602082019050818103600083015261141a816113de565b9050919050565b7f5072656d69756d207061796d656e742074696d65206e6f742072656163686564600082015250565b6000611457602083611338565b915061146282611421565b602082019050919050565b600060208201905081810360008301526114868161144a565b9050919050565b7f50726576696f7573207072656d69756d73206e6f742070616964000000000000600082015250565b60006114c3601a83611338565b91506114ce8261148d565b602082019050919050565b600060208201905081810360008301526114f2816114b6565b9050919050565b7f496e636f7272656374207072656d69756d20616d6f756e740000000000000000600082015250565b600061152f601883611338565b915061153a826114f9565b602082019050919050565b6000602082019050818103600083015261155e81611522565b9050919050565b7f416c726561647920726567697374657265640000000000000000000000000000600082015250565b600061159b601283611338565b91506115a682611565565b602082019050919050565b600060208201905081810360008301526115ca8161158e565b9050919050565b7f4f776e61626c653a206e6577206f776e657220697320746865207a65726f206160008201527f6464726573730000000000000000000000000000000000000000000000000000602082015250565b600061162d602683611338565b9150611638826115d1565b604082019050919050565b6000602082019050818103600083015261165c81611620565b9050919050565b7f4e487b7100000000000000000000000000000000000000000000000000000000600052601160045260246000fd5b600061169d82610ffb565b91506116a883610ffb565b92508282019050808211156116c0576116bf611663565b5b92915050565b60006116d182610ffb565b91506116dc83610ffb565b92508282039050818111156116f4576116f3611663565b5b92915050565b7f4f776e61626c653a2063616c6c6572206973206e6f7420746865206f776e6572600082015250565b6000611730602083611338565b915061173b826116fa565b602082019050919050565b6000602082019050818103600083015261175f81611723565b9050919050565b7f4e487b7100000000000000000000000000000000000000000000000000000000600052601260045260246000fd5b60006117a082610ffb565b91506117ab83610ffb565b9250826117bb576117ba611766565b5b828204905092915050565b60006117d182610ffb565b91506117dc83610ffb565b92508282026117ea81610ffb565b9150828204841483151761180157611800611663565b5b509291505056fea26469706673582212200281a34fc7336b0ca01fc0c6a409586da5ae7acdbc4d902b3bd7935ca19672e364736f6c63430008110033",
  "devdoc": {
    "kind": "dev",
    "methods": {
      "getPremium(uint256)": {
        "details": "Only valid storage provider can pay premium",
        "params": {
          "FILPrice": "Current FIL price"
        }
      },
      "owner()": {
        "details": "Returns the address of the current owner."
      },
      "registerStorageProvider(address,uint256,uint256)": {
        "details": "Only owner can register a storage provider",
        "params": {
          "_claimAmount": "Amount of claim to be paid",
          "_periodicPremium": "Amount of premium to be paid",
          "storageProvider": "Address of the storage provider"
        }
      },
      "renounceOwnership()": {
        "details": "Leaves the contract without owner. It will not be possible to call `onlyOwner` functions anymore. Can only be called by the current owner. NOTE: Renouncing ownership will leave the contract without an owner, thereby removing any functionality that is only available to the owner."
      },
      "transferOwnership(address)": {
        "details": "Transfers ownership of the contract to a new account (`newOwner`). Can only be called by the current owner."
      }
    },
    "version": 1
  },
  "userdoc": {
    "kind": "user",
    "methods": {
      "getPremium(uint256)": {
        "notice": "Pay premium"
      },
      "registerStorageProvider(address,uint256,uint256)": {
        "notice": "Register a storage provider for insurance"
      }
    },
    "version": 1
  },
  "storageLayout": {
    "storage": [
      {
        "astId": 7,
        "contract": "contracts/FilecoinInsurance.sol:FilecoinInsurance",
        "label": "_owner",
        "offset": 0,
        "slot": "0",
        "type": "t_address"
      },
      {
        "astId": 459,
        "contract": "contracts/FilecoinInsurance.sol:FilecoinInsurance",
        "label": "coverageAmount",
        "offset": 0,
        "slot": "1",
        "type": "t_uint256"
      },
      {
        "astId": 461,
        "contract": "contracts/FilecoinInsurance.sol:FilecoinInsurance",
        "label": "periodicPremium",
        "offset": 0,
        "slot": "2",
        "type": "t_uint256"
      },
      {
        "astId": 463,
        "contract": "contracts/FilecoinInsurance.sol:FilecoinInsurance",
        "label": "insuranceDuration",
        "offset": 0,
        "slot": "3",
        "type": "t_uint256"
      },
      {
        "astId": 465,
        "contract": "contracts/FilecoinInsurance.sol:FilecoinInsurance",
        "label": "minDurationBetweenPayments",
        "offset": 0,
        "slot": "4",
        "type": "t_uint256"
      },
      {
        "astId": 467,
        "contract": "contracts/FilecoinInsurance.sol:FilecoinInsurance",
        "label": "maxDurationBetweenPayments",
        "offset": 0,
        "slot": "5",
        "type": "t_uint256"
      },
      {
        "astId": 491,
        "contract": "contracts/FilecoinInsurance.sol:FilecoinInsurance",
        "label": "insuranceIssuees",
        "offset": 0,
        "slot": "6",
        "type": "t_mapping(t_address,t_struct(insuranceIssuee)486_storage)"
      }
    ],
    "types": {
      "t_address": {
        "encoding": "inplace",
        "label": "address",
        "numberOfBytes": "20"
      },
      "t_bool": {
        "encoding": "inplace",
        "label": "bool",
        "numberOfBytes": "1"
      },
      "t_mapping(t_address,t_struct(insuranceIssuee)486_storage)": {
        "encoding": "mapping",
        "key": "t_address",
        "label": "mapping(address => struct FilecoinInsurance.insuranceIssuee)",
        "numberOfBytes": "32",
        "value": "t_struct(insuranceIssuee)486_storage"
      },
      "t_struct(insuranceIssuee)486_storage": {
        "encoding": "inplace",
        "label": "struct FilecoinInsurance.insuranceIssuee",
        "members": [
          {
            "astId": 469,
            "contract": "contracts/FilecoinInsurance.sol:FilecoinInsurance",
            "label": "isInsured",
            "offset": 0,
            "slot": "0",
            "type": "t_bool"
          },
          {
            "astId": 471,
            "contract": "contracts/FilecoinInsurance.sol:FilecoinInsurance",
            "label": "payeeAddress",
            "offset": 1,
            "slot": "0",
            "type": "t_address"
          },
          {
            "astId": 473,
            "contract": "contracts/FilecoinInsurance.sol:FilecoinInsurance",
            "label": "timesPremiumPaid",
            "offset": 0,
            "slot": "1",
            "type": "t_uint256"
          },
          {
            "astId": 475,
            "contract": "contracts/FilecoinInsurance.sol:FilecoinInsurance",
            "label": "premiumStartTime",
            "offset": 0,
            "slot": "2",
            "type": "t_uint256"
          },
          {
            "astId": 477,
            "contract": "contracts/FilecoinInsurance.sol:FilecoinInsurance",
            "label": "premiumEndTime",
            "offset": 0,
            "slot": "3",
            "type": "t_uint256"
          },
          {
            "astId": 479,
            "contract": "contracts/FilecoinInsurance.sol:FilecoinInsurance",
            "label": "timeOfLastPremiumPayment",
            "offset": 0,
            "slot": "4",
            "type": "t_uint256"
          },
          {
            "astId": 481,
            "contract": "contracts/FilecoinInsurance.sol:FilecoinInsurance",
            "label": "regularPremiumAmount",
            "offset": 0,
            "slot": "5",
            "type": "t_uint256"
          },
          {
            "astId": 483,
            "contract": "contracts/FilecoinInsurance.sol:FilecoinInsurance",
            "label": "claimAmount",
            "offset": 0,
            "slot": "6",
            "type": "t_uint256"
          },
          {
            "astId": 485,
            "contract": "contracts/FilecoinInsurance.sol:FilecoinInsurance",
            "label": "claimPaid",
            "offset": 0,
            "slot": "7",
            "type": "t_bool"
          }
        ],
        "numberOfBytes": "256"
      },
      "t_uint256": {
        "encoding": "inplace",
        "label": "uint256",
        "numberOfBytes": "32"
      }
    }
  }
}