{
  "address": "0x9fE46736679d2D9a65F0992F2272dE9f3c7fa6e0",
  "abi": [
    {
      "inputs": [
        {
          "internalType": "uint256",
          "name": "_durationBetweenPayments",
          "type": "uint256"
        },
        {
          "internalType": "uint256",
          "name": "_insuranceDuration",
          "type": "uint256"
        },
        {
          "internalType": "address",
          "name": "_verifierAddress",
          "type": "address"
        }
      ],
      "stateMutability": "nonpayable",
      "type": "constructor"
    },
    {
      "anonymous": false,
      "inputs": [
        {
          "indexed": true,
          "internalType": "uint256",
          "name": "claimAmount",
          "type": "uint256"
        },
        {
          "indexed": true,
          "internalType": "address",
          "name": "payeeAddress",
          "type": "address"
        },
        {
          "indexed": true,
          "internalType": "uint256",
          "name": "timeOfClaim",
          "type": "uint256"
        }
      ],
      "name": "ClaimPaid",
      "type": "event"
    },
    {
      "anonymous": false,
      "inputs": [
        {
          "indexed": true,
          "internalType": "uint256",
          "name": "claimAmount",
          "type": "uint256"
        },
        {
          "indexed": true,
          "internalType": "address",
          "name": "payeeAddress",
          "type": "address"
        }
      ],
      "name": "ClaimRejected",
      "type": "event"
    },
    {
      "anonymous": false,
      "inputs": [
        {
          "indexed": true,
          "internalType": "uint256",
          "name": "coverageAmount",
          "type": "uint256"
        },
        {
          "indexed": true,
          "internalType": "uint256",
          "name": "periodicPremium",
          "type": "uint256"
        },
        {
          "indexed": true,
          "internalType": "uint256",
          "name": "insuranceDuration",
          "type": "uint256"
        },
        {
          "indexed": false,
          "internalType": "uint256",
          "name": "minDurationBetweenPayments",
          "type": "uint256"
        },
        {
          "indexed": false,
          "internalType": "uint256",
          "name": "maxDurationBetweenPayments",
          "type": "uint256"
        }
      ],
      "name": "InsuranceVariablesAdjusted",
      "type": "event"
    },
    {
      "anonymous": false,
      "inputs": [
        {
          "indexed": true,
          "internalType": "address",
          "name": "previousOwner",
          "type": "address"
        },
        {
          "indexed": true,
          "internalType": "address",
          "name": "newOwner",
          "type": "address"
        }
      ],
      "name": "OwnershipTransferred",
      "type": "event"
    },
    {
      "anonymous": false,
      "inputs": [
        {
          "indexed": true,
          "internalType": "uint256",
          "name": "paidAmount",
          "type": "uint256"
        },
        {
          "indexed": true,
          "internalType": "address",
          "name": "payeeAddress",
          "type": "address"
        },
        {
          "indexed": true,
          "internalType": "uint256",
          "name": "timeOfPayment",
          "type": "uint256"
        }
      ],
      "name": "PremiumPaid",
      "type": "event"
    },
    {
      "anonymous": false,
      "inputs": [
        {
          "indexed": true,
          "internalType": "address",
          "name": "storageProvider",
          "type": "address"
        },
        {
          "indexed": true,
          "internalType": "uint256",
          "name": "periodicPremium",
          "type": "uint256"
        },
        {
          "indexed": true,
          "internalType": "uint256",
          "name": "claimAmount",
          "type": "uint256"
        }
      ],
      "name": "StorageProviderReistered",
      "type": "event"
    },
    {
      "inputs": [
        {
          "internalType": "address",
          "name": "_storageProvider",
          "type": "address"
        }
      ],
      "name": "getClaimAmount",
      "outputs": [
        {
          "internalType": "uint256",
          "name": "",
          "type": "uint256"
        }
      ],
      "stateMutability": "view",
      "type": "function"
    },
    {
      "inputs": [],
      "name": "getDurationBetweenPayments",
      "outputs": [
        {
          "internalType": "uint256",
          "name": "",
          "type": "uint256"
        }
      ],
      "stateMutability": "view",
      "type": "function"
    },
    {
      "inputs": [],
      "name": "getInsuranceDuration",
      "outputs": [
        {
          "internalType": "uint256",
          "name": "",
          "type": "uint256"
        }
      ],
      "stateMutability": "view",
      "type": "function"
    },
    {
      "inputs": [
        {
          "internalType": "uint256",
          "name": "FILPrice",
          "type": "uint256"
        }
      ],
      "name": "getPremium",
      "outputs": [],
      "stateMutability": "payable",
      "type": "function"
    },
    {
      "inputs": [
        {
          "internalType": "address",
          "name": "_storageProvider",
          "type": "address"
        }
      ],
      "name": "getPremiumAmount",
      "outputs": [
        {
          "internalType": "uint256",
          "name": "",
          "type": "uint256"
        }
      ],
      "stateMutability": "view",
      "type": "function"
    },
    {
      "inputs": [
        {
          "internalType": "address",
          "name": "_storageProvider",
          "type": "address"
        }
      ],
      "name": "getRegisteredStorageProvider",
      "outputs": [
        {
          "components": [
            {
              "internalType": "bool",
              "name": "isInsured",
              "type": "bool"
            },
            {
              "internalType": "address",
              "name": "payeeAddress",
              "type": "address"
            },
            {
              "internalType": "uint256",
              "name": "timesPremiumPaid",
              "type": "uint256"
            },
            {
              "internalType": "uint256",
              "name": "premiumStartTime",
              "type": "uint256"
            },
            {
              "internalType": "uint256",
              "name": "premiumEndTime",
              "type": "uint256"
            },
            {
              "internalType": "uint256",
              "name": "timeOfLastPremiumPayment",
              "type": "uint256"
            },
            {
              "internalType": "uint256",
              "name": "regularPremiumAmount",
              "type": "uint256"
            },
            {
              "internalType": "uint256",
              "name": "claimAmount",
              "type": "uint256"
            },
            {
              "internalType": "bool",
              "name": "claimPaid",
              "type": "bool"
            }
          ],
          "internalType": "struct FilecoinInsurance.insuranceIssuee",
          "name": "",
          "type": "tuple"
        }
      ],
      "stateMutability": "view",
      "type": "function"
    },
    {
      "inputs": [
        {
          "internalType": "address",
          "name": "",
          "type": "address"
        }
      ],
      "name": "insuranceIssuees",
      "outputs": [
        {
          "internalType": "bool",
          "name": "isInsured",
          "type": "bool"
        },
        {
          "internalType": "address",
          "name": "payeeAddress",
          "type": "address"
        },
        {
          "internalType": "uint256",
          "name": "timesPremiumPaid",
          "type": "uint256"
        },
        {
          "internalType": "uint256",
          "name": "premiumStartTime",
          "type": "uint256"
        },
        {
          "internalType": "uint256",
          "name": "premiumEndTime",
          "type": "uint256"
        },
        {
          "internalType": "uint256",
          "name": "timeOfLastPremiumPayment",
          "type": "uint256"
        },
        {
          "internalType": "uint256",
          "name": "regularPremiumAmount",
          "type": "uint256"
        },
        {
          "internalType": "uint256",
          "name": "claimAmount",
          "type": "uint256"
        },
        {
          "internalType": "bool",
          "name": "claimPaid",
          "type": "bool"
        }
      ],
      "stateMutability": "view",
      "type": "function"
    },
    {
      "inputs": [],
      "name": "owner",
      "outputs": [
        {
          "internalType": "address",
          "name": "",
          "type": "address"
        }
      ],
      "stateMutability": "view",
      "type": "function"
    },
    {
      "inputs": [],
      "name": "raiseClaimRequest",
      "outputs": [],
      "stateMutability": "nonpayable",
      "type": "function"
    },
    {
      "inputs": [
        {
          "internalType": "address",
          "name": "_storageProvider",
          "type": "address"
        }
      ],
      "name": "registerStorageProvider",
      "outputs": [],
      "stateMutability": "nonpayable",
      "type": "function"
    },
    {
      "inputs": [],
      "name": "renounceOwnership",
      "outputs": [],
      "stateMutability": "nonpayable",
      "type": "function"
    },
    {
      "inputs": [
        {
          "internalType": "address",
          "name": "newOwner",
          "type": "address"
        }
      ],
      "name": "transferOwnership",
      "outputs": [],
      "stateMutability": "nonpayable",
      "type": "function"
    }
  ],
  "transactionHash": "0x0093e2cfa1a5a7abae3c4c29cf206cd7ca76e9add87ad57c038a96768f66ea71",
  "args": [
    2592000,
    31104000,
    "0xe7f1725E7734CE288F8367e1Bb143E90bb3F0512"
  ],
  "numDeployments": 1,
  "solcInputHash": "7ae8b06f28d10a8d9e726bf53c678816",
  "bytecode": "0x60806040523480156200001157600080fd5b506040516200251638038062002516833981810160405281019062000037919062000264565b620000576200004b620000db60201b60201c565b620000e360201b60201c565b60018081905550826005819055506200008462069780600554620001a760201b62000eaa1790919060201c565b6006819055508160048190555080600760006101000a81548173ffffffffffffffffffffffffffffffffffffffff021916908373ffffffffffffffffffffffffffffffffffffffff1602179055505050506200032a565b600033905090565b60008060009054906101000a900473ffffffffffffffffffffffffffffffffffffffff169050816000806101000a81548173ffffffffffffffffffffffffffffffffffffffff021916908373ffffffffffffffffffffffffffffffffffffffff1602179055508173ffffffffffffffffffffffffffffffffffffffff168173ffffffffffffffffffffffffffffffffffffffff167f8be0079c531659141344cd1fd0a4f28419497f9722a3daafe3b4186f6b6457e060405160405180910390a35050565b60008183620001b79190620002ef565b905092915050565b600080fd5b6000819050919050565b620001d981620001c4565b8114620001e557600080fd5b50565b600081519050620001f981620001ce565b92915050565b600073ffffffffffffffffffffffffffffffffffffffff82169050919050565b60006200022c82620001ff565b9050919050565b6200023e816200021f565b81146200024a57600080fd5b50565b6000815190506200025e8162000233565b92915050565b60008060006060848603121562000280576200027f620001bf565b5b60006200029086828701620001e8565b9350506020620002a386828701620001e8565b9250506040620002b6868287016200024d565b9150509250925092565b7f4e487b7100000000000000000000000000000000000000000000000000000000600052601160045260246000fd5b6000620002fc82620001c4565b91506200030983620001c4565b9250828201905080821115620003245762000323620002c0565b5b92915050565b6121dc806200033a6000396000f3fe6080604052600436106100a75760003560e01c8063dde070e811610064578063dde070e81461019b578063ec979d9f146101d8578063f2fde38b146101ef578063f619fb8314610218578063fa0f536f14610243578063ff7426e714610288576100a7565b80631428a119146100ac5780631bf1fffb146100d55780633fe3c3d5146100f1578063491c129a1461012e578063715018a6146101595780638da5cb5b14610170575b600080fd5b3480156100b857600080fd5b506100d360048036038101906100ce9190611825565b6102c5565b005b6100ef60048036038101906100ea9190611888565b610421565b005b3480156100fd57600080fd5b5061011860048036038101906101139190611825565b610754565b60405161012591906119a5565b60405180910390f35b34801561013a57600080fd5b50610143610876565b60405161015091906119d0565b60405180910390f35b34801561016557600080fd5b5061016e610880565b005b34801561017c57600080fd5b50610185610894565b60405161019291906119fa565b60405180910390f35b3480156101a757600080fd5b506101c260048036038101906101bd9190611825565b6108bd565b6040516101cf91906119d0565b60405180910390f35b3480156101e457600080fd5b506101ed610909565b005b3480156101fb57600080fd5b5061021660048036038101906102119190611825565b610d49565b005b34801561022457600080fd5b5061022d610dcc565b60405161023a91906119d0565b60405180910390f35b34801561024f57600080fd5b5061026a60048036038101906102659190611825565b610dd6565b60405161027f99989796959493929190611a24565b60405180910390f35b34801561029457600080fd5b506102af60048036038101906102aa9190611825565b610e5e565b6040516102bc91906119d0565b60405180910390f35b6102cd610ec0565b6000600760009054906101000a900473ffffffffffffffffffffffffffffffffffffffff1673ffffffffffffffffffffffffffffffffffffffff166374f22010836040518263ffffffff1660e01b815260040161032a91906119fa565b6020604051808303816000875af1158015610349573d6000803e3d6000fd5b505050506040513d601f19601f8201168201806040525081019061036d9190611ac6565b90506000600760009054906101000a900473ffffffffffffffffffffffffffffffffffffffff1673ffffffffffffffffffffffffffffffffffffffff1663a40d1cbd846040518263ffffffff1660e01b81526004016103cc91906119fa565b6020604051808303816000875af11580156103eb573d6000803e3d6000fd5b505050506040513d601f19601f8201168201806040525081019061040f9190611ac6565b905061041c838383610f3e565b505050565b3361042b81611314565b61046a576040517f08c379a000000000000000000000000000000000000000000000000000000000815260040161046190611b50565b60405180910390fd5b61047381611384565b6104b2576040517f08c379a00000000000000000000000000000000000000000000000000000000081526004016104a990611bbc565b60405180910390fd5b6104bb816113f0565b6104fa576040517f08c379a00000000000000000000000000000000000000000000000000000000081526004016104f190611c28565b60405180910390fd5b60001515600860008373ffffffffffffffffffffffffffffffffffffffff1673ffffffffffffffffffffffffffffffffffffffff16815260200190815260200160002060070160009054906101000a900460ff16151514610590576040517f08c379a000000000000000000000000000000000000000000000000000000000815260040161058790611c94565b60405180910390fd5b61059981611486565b6105d8576040517f08c379a00000000000000000000000000000000000000000000000000000000081526004016105cf90611d00565b60405180910390fd5b60006105e383611573565b9050803414610627576040517f08c379a000000000000000000000000000000000000000000000000000000000815260040161061e90611d6c565b60405180910390fd5b61067d6001600860003373ffffffffffffffffffffffffffffffffffffffff1673ffffffffffffffffffffffffffffffffffffffff16815260200190815260200160002060010154610eaa90919063ffffffff16565b600860003373ffffffffffffffffffffffffffffffffffffffff1673ffffffffffffffffffffffffffffffffffffffff1681526020019081526020016000206001018190555042600860003373ffffffffffffffffffffffffffffffffffffffff1673ffffffffffffffffffffffffffffffffffffffff16815260200190815260200160002060040181905550423373ffffffffffffffffffffffffffffffffffffffff16347ffbf1458fbbddabb878de144276216e8ccda619cbac2d598e6ee37ff72173afb160405160405180910390a4505050565b61075c61175c565b600860008373ffffffffffffffffffffffffffffffffffffffff1673ffffffffffffffffffffffffffffffffffffffff168152602001908152602001600020604051806101200160405290816000820160009054906101000a900460ff161515151581526020016000820160019054906101000a900473ffffffffffffffffffffffffffffffffffffffff1673ffffffffffffffffffffffffffffffffffffffff1673ffffffffffffffffffffffffffffffffffffffff1681526020016001820154815260200160028201548152602001600382015481526020016004820154815260200160058201548152602001600682015481526020016007820160009054906101000a900460ff1615151515815250509050919050565b6000600454905090565b610888610ec0565b61089260006115f6565b565b60008060009054906101000a900473ffffffffffffffffffffffffffffffffffffffff16905090565b6000600860008373ffffffffffffffffffffffffffffffffffffffff1673ffffffffffffffffffffffffffffffffffffffff168152602001908152602001600020600601549050919050565b6109116116ba565b3361091b81611314565b61095a576040517f08c379a000000000000000000000000000000000000000000000000000000000815260040161095190611b50565b60405180910390fd5b61096381611384565b6109a2576040517f08c379a000000000000000000000000000000000000000000000000000000000815260040161099990611bbc565b60405180910390fd5b60001515600860008373ffffffffffffffffffffffffffffffffffffffff1673ffffffffffffffffffffffffffffffffffffffff16815260200190815260200160002060070160009054906101000a900460ff16151514610a38576040517f08c379a0000000000000000000000000000000000000000000000000000000008152600401610a2f90611c94565b60405180910390fd5b6000600760009054906101000a900473ffffffffffffffffffffffffffffffffffffffff1673ffffffffffffffffffffffffffffffffffffffff166316f65d80336040518263ffffffff1660e01b8152600401610a9591906119fa565b6020604051808303816000875af1158015610ab4573d6000803e3d6000fd5b505050506040513d601f19601f82011682018060405250810190610ad89190611db8565b90508015610cb6576001600860003373ffffffffffffffffffffffffffffffffffffffff1673ffffffffffffffffffffffffffffffffffffffff16815260200190815260200160002060070160006101000a81548160ff02191690831515021790555060003373ffffffffffffffffffffffffffffffffffffffff16600860003373ffffffffffffffffffffffffffffffffffffffff1673ffffffffffffffffffffffffffffffffffffffff16815260200190815260200160002060060154604051610ba390611e16565b60006040518083038185875af1925050503d8060008114610be0576040519150601f19603f3d011682016040523d82523d6000602084013e610be5565b606091505b5050905080610c29576040517f08c379a0000000000000000000000000000000000000000000000000000000008152600401610c2090611e77565b60405180910390fd5b423373ffffffffffffffffffffffffffffffffffffffff16600860003373ffffffffffffffffffffffffffffffffffffffff1673ffffffffffffffffffffffffffffffffffffffff168152602001908152602001600020600601547faf3c8fdd75d667f71d36d7840b8ef9086c516c9b047ad6a83a5a66151342123a60405160405180910390a450610d3d565b3373ffffffffffffffffffffffffffffffffffffffff16600860003373ffffffffffffffffffffffffffffffffffffffff1673ffffffffffffffffffffffffffffffffffffffff168152602001908152602001600020600601547f22fadfffa9b3978ef60c97c46a0e6c38040d03db462e6cec7e09cff08c0aa41460405160405180910390a35b5050610d47611709565b565b610d51610ec0565b600073ffffffffffffffffffffffffffffffffffffffff168173ffffffffffffffffffffffffffffffffffffffff1603610dc0576040517f08c379a0000000000000000000000000000000000000000000000000000000008152600401610db790611f09565b60405180910390fd5b610dc9816115f6565b50565b6000600554905090565b60086020528060005260406000206000915090508060000160009054906101000a900460ff16908060000160019054906101000a900473ffffffffffffffffffffffffffffffffffffffff16908060010154908060020154908060030154908060040154908060050154908060060154908060070160009054906101000a900460ff16905089565b6000600860008373ffffffffffffffffffffffffffffffffffffffff1673ffffffffffffffffffffffffffffffffffffffff168152602001908152602001600020600501549050919050565b60008183610eb89190611f58565b905092915050565b610ec8611712565b73ffffffffffffffffffffffffffffffffffffffff16610ee6610894565b73ffffffffffffffffffffffffffffffffffffffff1614610f3c576040517f08c379a0000000000000000000000000000000000000000000000000000000008152600401610f3390611fd8565b60405180910390fd5b565b60001515600860008573ffffffffffffffffffffffffffffffffffffffff1673ffffffffffffffffffffffffffffffffffffffff16815260200190815260200160002060000160009054906101000a900460ff16151514610fd4576040517f08c379a0000000000000000000000000000000000000000000000000000000008152600401610fcb90612044565b60405180910390fd5b6001600860008573ffffffffffffffffffffffffffffffffffffffff1673ffffffffffffffffffffffffffffffffffffffff16815260200190815260200160002060000160006101000a81548160ff02191690831515021790555082600860008573ffffffffffffffffffffffffffffffffffffffff1673ffffffffffffffffffffffffffffffffffffffff16815260200190815260200160002060000160016101000a81548173ffffffffffffffffffffffffffffffffffffffff021916908373ffffffffffffffffffffffffffffffffffffffff1602179055506000600860008573ffffffffffffffffffffffffffffffffffffffff1673ffffffffffffffffffffffffffffffffffffffff1681526020019081526020016000206001018190555042600860008573ffffffffffffffffffffffffffffffffffffffff1673ffffffffffffffffffffffffffffffffffffffff1681526020019081526020016000206002018190555061115460045442610eaa90919063ffffffff16565b600860008573ffffffffffffffffffffffffffffffffffffffff1673ffffffffffffffffffffffffffffffffffffffff1681526020019081526020016000206003018190555081600860008573ffffffffffffffffffffffffffffffffffffffff1673ffffffffffffffffffffffffffffffffffffffff1681526020019081526020016000206005018190555080600860008573ffffffffffffffffffffffffffffffffffffffff1673ffffffffffffffffffffffffffffffffffffffff1681526020019081526020016000206006018190555042600860008573ffffffffffffffffffffffffffffffffffffffff1673ffffffffffffffffffffffffffffffffffffffff168152602001908152602001600020600401819055506000600860008573ffffffffffffffffffffffffffffffffffffffff1673ffffffffffffffffffffffffffffffffffffffff16815260200190815260200160002060070160006101000a81548160ff02191690831515021790555080828473ffffffffffffffffffffffffffffffffffffffff167f82836817c2b3e7521f50f18c4585b1cfd9d6b9df32f4e2efc305f98c926c05f260405160405180910390a4505050565b600060011515600860008473ffffffffffffffffffffffffffffffffffffffff1673ffffffffffffffffffffffffffffffffffffffff16815260200190815260200160002060000160009054906101000a900460ff1615150361137a576001905061137f565b600090505b919050565b6000804290506000600860008573ffffffffffffffffffffffffffffffffffffffff1673ffffffffffffffffffffffffffffffffffffffff168152602001908152602001600020600301549050808210156113e4576001925050506113eb565b6000925050505b919050565b600080600860008473ffffffffffffffffffffffffffffffffffffffff1673ffffffffffffffffffffffffffffffffffffffff16815260200190815260200160002060040154905060004290506000611452838361171a90919063ffffffff16565b9050600554811015801561146857506006548111155b156114795760019350505050611481565b600093505050505b919050565b600080600860008473ffffffffffffffffffffffffffffffffffffffff1673ffffffffffffffffffffffffffffffffffffffff1681526020019081526020016000206001015490506000600860008573ffffffffffffffffffffffffffffffffffffffff1673ffffffffffffffffffffffffffffffffffffffff16815260200190815260200160002060020154905060006005549050600061154382611535854261171a90919063ffffffff16565b61173090919063ffffffff16565b90506001816115529190612064565b840361156557600194505050505061156e565b60009450505050505b919050565b600080600860003373ffffffffffffffffffffffffffffffffffffffff1673ffffffffffffffffffffffffffffffffffffffff16815260200190815260200160002060050154905060006115ea670de0b6b3a76400006115dc868561174690919063ffffffff16565b61173090919063ffffffff16565b90508092505050919050565b60008060009054906101000a900473ffffffffffffffffffffffffffffffffffffffff169050816000806101000a81548173ffffffffffffffffffffffffffffffffffffffff021916908373ffffffffffffffffffffffffffffffffffffffff1602179055508173ffffffffffffffffffffffffffffffffffffffff168173ffffffffffffffffffffffffffffffffffffffff167f8be0079c531659141344cd1fd0a4f28419497f9722a3daafe3b4186f6b6457e060405160405180910390a35050565b6002600154036116ff576040517f08c379a00000000000000000000000000000000000000000000000000000000081526004016116f6906120e4565b60405180910390fd5b6002600181905550565b60018081905550565b600033905090565b600081836117289190612064565b905092915050565b6000818361173e9190612133565b905092915050565b600081836117549190612164565b905092915050565b604051806101200160405280600015158152602001600073ffffffffffffffffffffffffffffffffffffffff1681526020016000815260200160008152602001600081526020016000815260200160008152602001600081526020016000151581525090565b600080fd5b600073ffffffffffffffffffffffffffffffffffffffff82169050919050565b60006117f2826117c7565b9050919050565b611802816117e7565b811461180d57600080fd5b50565b60008135905061181f816117f9565b92915050565b60006020828403121561183b5761183a6117c2565b5b600061184984828501611810565b91505092915050565b6000819050919050565b61186581611852565b811461187057600080fd5b50565b6000813590506118828161185c565b92915050565b60006020828403121561189e5761189d6117c2565b5b60006118ac84828501611873565b91505092915050565b60008115159050919050565b6118ca816118b5565b82525050565b6118d9816117e7565b82525050565b6118e881611852565b82525050565b6101208201600082015161190560008501826118c1565b50602082015161191860208501826118d0565b50604082015161192b60408501826118df565b50606082015161193e60608501826118df565b50608082015161195160808501826118df565b5060a082015161196460a08501826118df565b5060c082015161197760c08501826118df565b5060e082015161198a60e08501826118df565b5061010082015161199f6101008501826118c1565b50505050565b6000610120820190506119bb60008301846118ee565b92915050565b6119ca81611852565b82525050565b60006020820190506119e560008301846119c1565b92915050565b6119f4816117e7565b82525050565b6000602082019050611a0f60008301846119eb565b92915050565b611a1e816118b5565b82525050565b600061012082019050611a3a600083018c611a15565b611a47602083018b6119eb565b611a54604083018a6119c1565b611a6160608301896119c1565b611a6e60808301886119c1565b611a7b60a08301876119c1565b611a8860c08301866119c1565b611a9560e08301856119c1565b611aa3610100830184611a15565b9a9950505050505050505050565b600081519050611ac08161185c565b92915050565b600060208284031215611adc57611adb6117c2565b5b6000611aea84828501611ab1565b91505092915050565b600082825260208201905092915050565b7f4e6f742072656769737465726564000000000000000000000000000000000000600082015250565b6000611b3a600e83611af3565b9150611b4582611b04565b602082019050919050565b60006020820190508181036000830152611b6981611b2d565b9050919050565b7f496e737572616e63652065787069726564000000000000000000000000000000600082015250565b6000611ba6601183611af3565b9150611bb182611b70565b602082019050919050565b60006020820190508181036000830152611bd581611b99565b9050919050565b7f5072656d69756d207061796d656e742074696d65206e6f742072656163686564600082015250565b6000611c12602083611af3565b9150611c1d82611bdc565b602082019050919050565b60006020820190508181036000830152611c4181611c05565b9050919050565b7f436c61696d20616c726561647920706169640000000000000000000000000000600082015250565b6000611c7e601283611af3565b9150611c8982611c48565b602082019050919050565b60006020820190508181036000830152611cad81611c71565b9050919050565b7f50726576696f7573207072656d69756d73206e6f742070616964000000000000600082015250565b6000611cea601a83611af3565b9150611cf582611cb4565b602082019050919050565b60006020820190508181036000830152611d1981611cdd565b9050919050565b7f496e636f7272656374207072656d69756d20616d6f756e740000000000000000600082015250565b6000611d56601883611af3565b9150611d6182611d20565b602082019050919050565b60006020820190508181036000830152611d8581611d49565b9050919050565b611d95816118b5565b8114611da057600080fd5b50565b600081519050611db281611d8c565b92915050565b600060208284031215611dce57611dcd6117c2565b5b6000611ddc84828501611da3565b91505092915050565b600081905092915050565b50565b6000611e00600083611de5565b9150611e0b82611df0565b600082019050919050565b6000611e2182611df3565b9150819050919050565b7f5472616e73666572206661696c65642e00000000000000000000000000000000600082015250565b6000611e61601083611af3565b9150611e6c82611e2b565b602082019050919050565b60006020820190508181036000830152611e9081611e54565b9050919050565b7f4f776e61626c653a206e6577206f776e657220697320746865207a65726f206160008201527f6464726573730000000000000000000000000000000000000000000000000000602082015250565b6000611ef3602683611af3565b9150611efe82611e97565b604082019050919050565b60006020820190508181036000830152611f2281611ee6565b9050919050565b7f4e487b7100000000000000000000000000000000000000000000000000000000600052601160045260246000fd5b6000611f6382611852565b9150611f6e83611852565b9250828201905080821115611f8657611f85611f29565b5b92915050565b7f4f776e61626c653a2063616c6c6572206973206e6f7420746865206f776e6572600082015250565b6000611fc2602083611af3565b9150611fcd82611f8c565b602082019050919050565b60006020820190508181036000830152611ff181611fb5565b9050919050565b7f416c726561647920726567697374657265640000000000000000000000000000600082015250565b600061202e601283611af3565b915061203982611ff8565b602082019050919050565b6000602082019050818103600083015261205d81612021565b9050919050565b600061206f82611852565b915061207a83611852565b925082820390508181111561209257612091611f29565b5b92915050565b7f5265656e7472616e637947756172643a207265656e7472616e742063616c6c00600082015250565b60006120ce601f83611af3565b91506120d982612098565b602082019050919050565b600060208201905081810360008301526120fd816120c1565b9050919050565b7f4e487b7100000000000000000000000000000000000000000000000000000000600052601260045260246000fd5b600061213e82611852565b915061214983611852565b92508261215957612158612104565b5b828204905092915050565b600061216f82611852565b915061217a83611852565b925082820261218881611852565b9150828204841483151761219f5761219e611f29565b5b509291505056fea2646970667358221220f31c301f91796b7e44bf4acde033643b5f6af2c213a8b54f1770ce40768b28f964736f6c63430008110033",
  "devdoc": {
    "kind": "dev",
    "methods": {
      "constructor": {
        "details": "Sets the coverage amount, periodic premium and insurance duration",
        "params": {
          "_durationBetweenPayments": "Minimum duration between payments",
          "_insuranceDuration": "Duration of the insurance",
          "_verifierAddress": "Address of the verifier contract"
        }
      },
      "getPremium(uint256)": {
        "details": "Only valid storage provider can pay premium",
        "params": {
          "FILPrice": "Current FIL price"
        }
      },
      "owner()": {
        "details": "Returns the address of the current owner."
      },
      "renounceOwnership()": {
        "details": "Leaves the contract without owner. It will not be possible to call `onlyOwner` functions anymore. Can only be called by the current owner. NOTE: Renouncing ownership will leave the contract without an owner, thereby removing any functionality that is only available to the owner."
      },
      "transferOwnership(address)": {
        "details": "Transfers ownership of the contract to a new account (`newOwner`). Can only be called by the current owner."
      }
    },
    "version": 1
  },
  "userdoc": {
    "kind": "user",
    "methods": {
      "constructor": {
        "notice": "Constructor for the contract"
      },
      "getPremium(uint256)": {
        "notice": "Pay premium"
      }
    },
    "version": 1
  },
  "storageLayout": {
    "storage": [
      {
        "astId": 7,
        "contract": "contracts/FilecoinInsurance.sol:FilecoinInsurance",
        "label": "_owner",
        "offset": 0,
        "slot": "0",
        "type": "t_address"
      },
      {
        "astId": 123,
        "contract": "contracts/FilecoinInsurance.sol:FilecoinInsurance",
        "label": "_status",
        "offset": 0,
        "slot": "1",
        "type": "t_uint256"
      },
      {
        "astId": 516,
        "contract": "contracts/FilecoinInsurance.sol:FilecoinInsurance",
        "label": "coverageAmount",
        "offset": 0,
        "slot": "2",
        "type": "t_uint256"
      },
      {
        "astId": 518,
        "contract": "contracts/FilecoinInsurance.sol:FilecoinInsurance",
        "label": "periodicPremium",
        "offset": 0,
        "slot": "3",
        "type": "t_uint256"
      },
      {
        "astId": 520,
        "contract": "contracts/FilecoinInsurance.sol:FilecoinInsurance",
        "label": "insuranceDuration",
        "offset": 0,
        "slot": "4",
        "type": "t_uint256"
      },
      {
        "astId": 522,
        "contract": "contracts/FilecoinInsurance.sol:FilecoinInsurance",
        "label": "minDurationBetweenPayments",
        "offset": 0,
        "slot": "5",
        "type": "t_uint256"
      },
      {
        "astId": 524,
        "contract": "contracts/FilecoinInsurance.sol:FilecoinInsurance",
        "label": "maxDurationBetweenPayments",
        "offset": 0,
        "slot": "6",
        "type": "t_uint256"
      },
      {
        "astId": 526,
        "contract": "contracts/FilecoinInsurance.sol:FilecoinInsurance",
        "label": "verifierAddress",
        "offset": 0,
        "slot": "7",
        "type": "t_address"
      },
      {
        "astId": 550,
        "contract": "contracts/FilecoinInsurance.sol:FilecoinInsurance",
        "label": "insuranceIssuees",
        "offset": 0,
        "slot": "8",
        "type": "t_mapping(t_address,t_struct(insuranceIssuee)545_storage)"
      }
    ],
    "types": {
      "t_address": {
        "encoding": "inplace",
        "label": "address",
        "numberOfBytes": "20"
      },
      "t_bool": {
        "encoding": "inplace",
        "label": "bool",
        "numberOfBytes": "1"
      },
      "t_mapping(t_address,t_struct(insuranceIssuee)545_storage)": {
        "encoding": "mapping",
        "key": "t_address",
        "label": "mapping(address => struct FilecoinInsurance.insuranceIssuee)",
        "numberOfBytes": "32",
        "value": "t_struct(insuranceIssuee)545_storage"
      },
      "t_struct(insuranceIssuee)545_storage": {
        "encoding": "inplace",
        "label": "struct FilecoinInsurance.insuranceIssuee",
        "members": [
          {
            "astId": 528,
            "contract": "contracts/FilecoinInsurance.sol:FilecoinInsurance",
            "label": "isInsured",
            "offset": 0,
            "slot": "0",
            "type": "t_bool"
          },
          {
            "astId": 530,
            "contract": "contracts/FilecoinInsurance.sol:FilecoinInsurance",
            "label": "payeeAddress",
            "offset": 1,
            "slot": "0",
            "type": "t_address"
          },
          {
            "astId": 532,
            "contract": "contracts/FilecoinInsurance.sol:FilecoinInsurance",
            "label": "timesPremiumPaid",
            "offset": 0,
            "slot": "1",
            "type": "t_uint256"
          },
          {
            "astId": 534,
            "contract": "contracts/FilecoinInsurance.sol:FilecoinInsurance",
            "label": "premiumStartTime",
            "offset": 0,
            "slot": "2",
            "type": "t_uint256"
          },
          {
            "astId": 536,
            "contract": "contracts/FilecoinInsurance.sol:FilecoinInsurance",
            "label": "premiumEndTime",
            "offset": 0,
            "slot": "3",
            "type": "t_uint256"
          },
          {
            "astId": 538,
            "contract": "contracts/FilecoinInsurance.sol:FilecoinInsurance",
            "label": "timeOfLastPremiumPayment",
            "offset": 0,
            "slot": "4",
            "type": "t_uint256"
          },
          {
            "astId": 540,
            "contract": "contracts/FilecoinInsurance.sol:FilecoinInsurance",
            "label": "regularPremiumAmount",
            "offset": 0,
            "slot": "5",
            "type": "t_uint256"
          },
          {
            "astId": 542,
            "contract": "contracts/FilecoinInsurance.sol:FilecoinInsurance",
            "label": "claimAmount",
            "offset": 0,
            "slot": "6",
            "type": "t_uint256"
          },
          {
            "astId": 544,
            "contract": "contracts/FilecoinInsurance.sol:FilecoinInsurance",
            "label": "claimPaid",
            "offset": 0,
            "slot": "7",
            "type": "t_bool"
          }
        ],
        "numberOfBytes": "256"
      },
      "t_uint256": {
        "encoding": "inplace",
        "label": "uint256",
        "numberOfBytes": "32"
      }
    }
  }
}